:10034000E4F52DF52CF52BF52AC203C200C202C23A
:1003500001120AAB7E047FA38E088F09750A04750B
:100360000BB5750C05750D29EE54E07003020454AD
:10037000752E00752F808E308F31C374639FFF748C
:10038000059ECF2402CF3400FEE48F298E28F52766
:10039000F526F525F524F523F522AF29AE28AD275E
:1003A000AC26AB25AA24A923A822C3120A71502A7D
:1003B000E52F2525F582E52E3524F58374CDF0E46F
:1003C000FAF9F8E5252401F525EA3524F524E9357F
:1003D00023F523E83522F52280C0E4F525F524F540
:1003E00023F522AF29AE28AD27AC26AB25AA24A938
:1003F00023A822C3120A715035AE24AF25E5312F50
:10040000F582E5303EF583E0FDE52F2FF582E52E00
:100410003EF583EDF0E4FAF9F8EF2401F525EA3E24
:10042000F524E93523F523E83522F52280B5852E1C
:1004300008852F0974A32480FF740434FFFEC3E5EC
:100440000B9FF50BE50A9EF50AC3E50D9FF50DE53B
:100450000C9EF50CD2E843D820907F95E044C0F084
:10046000907FAFE04401F0907FAEE0441DF0D2AF4A
:10047000D20412092B538EF8300105120046C20136
:1004800030031A120B815015C203120ACC20000748
:10049000907FD6E020E7F3120AED120B83120042A0
:0204A00080D604
:0104A2002237
:10004600907FE9E070030201E51470030202612467
:10005600FE70030202D824FB70030201DF14700352
:100066000201D91470030201CD1470030201D324D6
:1000760005600302032C120B854003020338907FB0
:10008600EBE024FE6019146045240260030201C3FC
:10009600E508907FD4F0E509907FD5F0020338900B
:1000A6007FEAE0FF12097CAA06A9077B018B328A48
:1000B600338934EA49600DEE907FD4F0EF907FD516
:1000C600F0020338907FB4E04401F0020338907FD9
:1000D600EAE0FF120003AA06A9077B018B328A33E6
:0900E6008934EA4970030201B9F2
:1000EF00AB328B398A3A893B120A58F53C907FEE36
:1000FF00E0FFE53CD39F4003E0F53CE53C70030295
:10010F0001ABE4F538F537F536F535E53CC39440EA
:10011F005004AF3C80027F40E4FCFDFEAB38AA37B1
:10012F00A936A835C3120A715036E53B2538F5823A
:10013F00E53A3537F583E0FF74002538F582E4346E
:10014F007FF583EFF0E4FAF9F8E5382401F538EAA2
:10015F003537F537E93536F536E83535F53580ABD2
:10016F00E53CC394405004AF3C80027F40907FB584
:10017F00EFF0E53CC394405004AF3C80027F40C396
:10018F00E53C9FF53C7440253BF53BE4353AF53AA9
:10019F00907FB4E020E20302010A80F4E4907FB57F
:0701AF00F0907FB47402F030
:1001B600020338907FB4E04401F0020338907FB424
:1001C600E04401F0020338120B63020338120B7984
:1001D600020338120B710203381209F102033812B6
:1001E6000B874003020338907FE8E0247F602414E5
:1001F60060312402705BA200E433FF25E0FFA20217
:10020600E4334F907F00F0E4A3F0907FB57402F0E2
:10021600020338E4907F00F0A3F0907FB57402F0FB
:10022600020338907FECE0F45480FFC4540FFFE0E3
:1002360054072F25E024B4F582E4347FF583E05497
:1002460001907F00F0E4A3F0907FB57402F0020302
:1002560038907FB4E04401F0020338120B89400362
:10026600020338907FE8E024FE601D24026003024A
:100276000338907FEAE0B40105C200020338907F9C
:10028600B4E04401F0020338907FEAE0703B907FCF
:10029600ECE0F45480FFC4540FFFE054072F25E030
:1002A60024B4F582E4347FF583E4F0907FECE054E7
:1002B60080FF131313541FFFE054072F907FD7F0CE
:0302C600E4F53923
:1002C900E04420F08069907FB4E04401F08060123E
:1002D9000B8B505B907FE8E024FE60182402704F7E
:1002E900907FEAE0B40104D2008044907FB4E044F6
:1002F90001F0803B907FEAE07020907FECE0F454BD
:1003090080FFC4540FFFE054072F25E024B4F58281
:10031900E4347FF5837401F08015907FB4E04401E3
:10032900F0800C120B8D5007907FB4E04401F090DF
:060339007FB4E04402F075
:01033F00229B
:0300330002002F99
:04002F0053D8EF3281
:100AAB00907FDEE044FEF0907FDFE044FEF0907F2D
:100ABB00ADE044FEF0750F01907F9C74FFF0D20007
:010ACB002208
:01004200229B
:020B8100D3227D
:020B8300D3227B
:020B8500D32279
:080B7100907FEAE0F510D322A9
:0E09F100907F00E510F0907FB57401F0D322E6
:080B7900907FEAE0F50ED322A3
:0E0B6300907F00E50EF0907FB57401F0D32274
:020B8700D32277
:020B8900D32275
:020B8B00D32273
:020B8D00D32271
:100B0700C0E0C083C082D2015391EF907FAB7401E4
:080B1700F0D082D083D0E0325F
:100B3700C0E0C083C0825391EF907FAB7404F0D0C4
:060B470082D083D0E032F1
:100B4D00C0E0C083C0825391EF907FAB7402F0D0B0
:060B5D0082D083D0E032DB
:1009BE00C0E0C083C082907FC7E4F0907FC9F09002
:1009CE007FCBF0907FCDF0907FCFF0907FD1F090E5
:1009DE007FD3F05391EF907FAB7410F0D082D08321
:0309EE00D0E03224
:0109FF0032C5
:100B1F00C0E0C083C082D2035391EF907FAB7408C3
:080B2F00F0D082D083D0E03247
:010B8F003233
:010B90003232
:010B91003231
:10056500C0E0C083C082C0D075D000C000C005C047
:0305750006C007B6
:0D057800907FB6E030E11A907FD77409F053
:03058500752100DD
:10058800E030E706E04420F08007907FD7E0444061
:10059800F0E4FFFE907FC7E0FDC3EF9D7480F86E26
:1005A80098502074402FF582E4347EF583E0F4FD02
:1005B80074802FF582E4347EF583EDF00FBF0001DF
:1005C8000E80D1907FB7EFF0907FC7E4F05391EFA2
:0605D800907FAA7402F0FE
:1005DE00D007D006D005D000D0D0D082D083D0E0C6
:0105EE0032DA
:010B92003230
:1005EF00C0E0C083C082C0D075D000C000C005C0BD
:0305FF0006C0072C
:0D060200907FB8E030E11A907FD7740AF0C5
:03060F0075210052
:10061200E030E706E04420F08007907FD7E04440D6
:10062200F0E4FFFE907FC9E0FDC3EF9D7480F86E99
:1006320098502074C02FF582E4347DF583E0F4FDF8
:1006420074002FF582E4347EF583EDF00FBF0001D4
:100652000E80D1907FB9EFF0907FC9E4F05391EF13
:06066200907FAA7404F071
:10066800D007D006D005D000D0D0D082D083D0E03B
:01067800324F
:010B9300322F
:10067900C0E0C083C082C0D075D000C000C005C032
:0306890006C007A1
:0D068C00907FBAE030E11A907FD7740BF038
:03069900752100C8
:10069C00E030E706E04420F08007907FD7E044404C
:1006AC00F0E4FFFE907FCBE0FDC3EF9D7480F86E0D
:1006BC0098502074402FF582E4347DF583E0F4FDEE
:1006CC0074802FF582E4347DF583EDF00FBF0001CB
:1006DC000E80D1907FBBEFF0907FCBE4F05391EF85
:0606EC00907FAA7408F0E3
:1006F200D007D006D005D000D0D0D082D083D0E0B1
:0107020032C4
:010B9400322E
:10070300C0E0C083C082C0D075D000C000C005C0A7
:0307130006C00716
:0D071600907FBCE030E11A907FD7740CF0AA
:030723007521003D
:10072600E030E706E04420F08007907FD7E04440C1
:10073600F0E4FFFE907FCDE0FDC3EF9D7480F86E80
:1007460098502074C02FF582E4347CF583E0F4FDE4
:1007560074002FF582E4347DF583EDF00FBF0001C0
:100766000E80D1907FBDEFF0907FCDE4F05391EFF6
:06077600907FAA7410F050
:10077C00D007D006D005D000D0D0D082D083D0E026
:01078C00323A
:010B9500322D
:10078D00C0E0C083C082C0D075D000C000C005C01D
:03079D0006C0078C
:0D07A000907FBEE030E11A907FD7740DF01D
:0307AD00752100B3
:1007B000E030E706E04420F08007907FD7E0444037
:1007C000F0E4FFFE907FCFE0FDC3EF9D7480F86EF4
:1007D00098502074402FF582E4347CF583E0F4FDDA
:1007E00074802FF582E4347CF583EDF00FBF0001B7
:1007F0000E80D1907FBFEFF0907FCFE4F05391EF68
:06080000907FAA7420F0B5
:10080600D007D006D005D000D0D0D082D083D0E09B
:0108160032AF
:010B9600322C
:10081700C0E0C083C082C0D075D000C000C005C092
:0308270006C00701
:0D082A00907FC0E030E11A907FD7740EF08F
:0308370075210028
:10083A00E030E706E04420F08007907FD7E04440AC
:10084A00F0E4FFFE907FD1E0FDC3EF9D7480F86E67
:10085A0098502074C02FF582E4347BF583E0F4FDD0
:10086A0074002FF582E4347CF583EDF00FBF0001AC
:10087A000E80D1907FC1EFF0907FD1E4F05391EFD9
:06088A00907FAA7440F00B
:10089000D007D006D005D000D0D0D082D083D0E011
:0108A0003225
:010B9700322B
:1008A100C0E0C083C082C0D075D000C000C005C008
:0308B10006C00777
:0D08B400907FC2E030E11A907FD7740FF002
:0308C1007521009E
:1008C400E030E706E04420F08007907FD7E0444022
:1008D400F0E4FFFE907FD3E0FDC3EF9D7480F86EDB
:1008E40098502074402FF582E4347BF583E0F4FDC6
:1008F40074802FF582E4347BF583EDF00FBF0001A3
:100904000E80D1907FC3EFF0907FD3E4F05391EF4A
:06091400907FAA7480F040
:10091A00D007D006D005D000D0D0D082D083D0E086
:01092A00329A
:1004A3001201000100000040470502100100010293
:1004B300000109027400010100A000090400000EFC
:1004C300FF0000000705010240000007050202408B
:1004D3000000070503024000000705040240000076
:1004E3000705050240000007050602400000070556
:1004F300070240000007058103400001070582024F
:100503004000000705830240000007058402400005
:10051300000705850240000007058602400000072A
:10052300058702400000040309041A0341006E001A
:10053300630068006F0072002000430068006900D8
:10054300700073001C0345005A002D005500530032
:1005530042002000440065007600690063006500E6
:02056300000096
:100AED00907FD6E030E712E04401F07F147E0012D3
:0A0AFD000A82907FD6E054FEF0223A
:100ACC00907FD6E04480F0438701000000000022B4
:07092B00907FD6E04408F0C4
:03093200E4F532B7
:04093500E054FBF09F
:03093900E4F532B0
:10093C00E04408F0300404E04402F07FDC7E051251
:10094C000A82907F92E030E3077FDC7E05120A82F8
:10095C00907FAB74FFF0907FA9F0907FAAF0539139
:08096C00EF907FD6E054F7F094
:03097400E4F53275
:05097700E04404F02241
:02000300A9074B
:10000500AE0CAF0D8F828E83A3E064037017AD0134
:1000150019ED7001228F828E83E07C002FFDEC3E6E
:09002500FEAF0580DF7E007F00C4
:01002E0022AF
:10097C00E4FEAC0AAD0B8D828C83A3E06402702D77
:10098C00AB060EEBB50705AF05AE04228D828C834A
:10099C00A3A3E0F53DA3E0F53E623DE53D623EE5F7
:1009AC003E623D2DFBE53D3CFCAD0380C97E007FE6
:0109BC00003A
:0109BD002217
:100A82008E338F34907F92E030E30BE53425E0F52E
:100A920034E53333F533E5341534AE3370021533B0
:090AA2004E6005120ADC80EE2210
:100ADC007400F58690FDA57C05A3E582458370F92D
:010AEC0022E7
:03004300020A00AE
:100A0000020B0700020B4D00020B3700020B1F0008
:100A10000209BE000209FF00020B8F00020B9000CA
:100A2000020B910002056500020B92000205EF0027
:100A3000020B930002067900020B940002070300E8
:100A4000020B950002078D00020B960002081700AA
:080A5000020B97000208A1004F
:03000000020036C5
:0C003600787FE4F6D8FD75813E0203409F
:100A5800BB010689828A83E0225002E722BBFE029C
:090A6800E32289828A83E49322CF
:100A7100EB9FF5F0EA9E42F0E99D42F0E89C45F0DB
:010A81002252
:00000001FF
