:1043BB00752D00752C00752B00752A00C203C200E9
:1043CB00C202C201124C477E457F838E0A8F0B754A
:1043DB000C45750D95750F457510F27508457509EA
:1043EB00BEEE54E070030244EC752E00752F808EE8
:1043FB00308F31C374269FFF74469ECF2402CF3477
:10440B0000FEE48F298E28F527F526F525F524F5F2
:10441B0023F522AF29AE28AD27AC26AB25AA24A9BC
:10442B0023A822C3124B9E502CE52F2525F582E5A0
:10443B0024352EF58374CDF07A0079007800E525CC
:10444B002401F525EA3524F524E93523F523E83550
:10445B0022F52280BE752500752400752300752278
:10446B0000AF29AE28AD27AC26AB25AA24A923A8DB
:10447B0022C3124B9E5039AE24AF25E5312FF58266
:10448B00EE3530F583E0FDE52F2FF582EE352EF579
:10449B0083EDF07A0079007800E5252401F525EA13
:1044AB003524F524E93523F523E83522F52280B1AF
:1044BB00852E0A852F0B74832480FF744534FFFEF1
:1044CB00C3E50D9FF50DE50C9EF50CC3E5109FF5AF
:1044DB0010E50F9EF50FC3E5099FF509E5089EF55D
:1044EB0008D2E843D820907F95E044C0F0907FAF8E
:1044FB00E04401F0907FAEE0441DF0D2AF20014AC2
:10450B00200105D204124AAC752D00752C00752BB9
:10451B0000752A007F407E927D047C00AB2DAA2C77
:10452B00A92BA82AC3124B9E50D32001D07A007915
:10453B00007800E52D2401F52DEA352CF52CE93515
:10454B002BF52BE8352AF52A80CA538EF830010556
:10455B00124000C20130031A124AFD5015C2031259
:10456B004D07200007907FD6E020E7F3124D28126D
:07457B004D95124AFF80D6A6
:014582002216
:10400000907FE9E070030242601470030242DC24F6
:10401000FE700302435324FB700302425A147003E0
:1040200002425414700302424814700302424E24A8
:104030000560030243A7124D9740030243B3907FEC
:10404000EBE024FE602014604E24E1700302418006
:104050002421600302423EE50A907FD4F0E50B90F4
:104060007FD5F00243B3907FEAE0FF124BAFAA0680
:10407000A9077B018B328A338934EA49600FEE90BD
:104080007FD4F0AF01EF907FD5F00243B3907FB4BF
:10409000E04401F00243B3907FEAE0FF124BF0AA44
:1040A00006A9077B018B328A338934EA49700302FF
:0240B000417657
:1040B200AB328B398A3A893B124B58F53C907FEEF2
:1040C200E0FFE53CD39F4003E0F53CE53C70030292
:1040D2004168753800753700753600753500E53C66
:1040E200C394405004AF3C80027F40E4FCFDFEAB31
:1040F20038AA37A936A835C3124B9E5038E53B255E
:1041020038F582E537353AF583E0FF74002538F556
:1041120082E4347FF583EFF07A0079007800E538A5
:104122002401F538EA3537F537E93536F536E8351D
:1041320035F53580A9E53CC394405004AF3C80027C
:104142007F40907FB5EFF0E53CC394405004AF3C14
:1041520080027F40C3E53C9FF53C907FB4E020E2C3
:10416200030240CD80F4E4907FB5F0907FB47402F6
:01417200F05C
:0D4173000243B3907FB4E04401F00243B377
:10418000AA08A9097B018B328A3389348B398A3A90
:10419000893B750E34907FEEE0FFE50ED39F400320
:1041A000E0F50EE50E70030243B375380075370075
:1041B000753600753500E50EC394405004AF0E808F
:1041C000027F40E4FCFDFEAB38AA37A936A835C310
:1041D000124B9E5038E53B2538F582E537353AF5E8
:1041E00083E0FF74002538F582E4347FF583EFF037
:1041F0007A0079007800E5382401F538EA3537F59A
:1042000037E93536F536E83535F53580A9E50EC39D
:1042100094405004AF0E80027F40907FB5EFF0E5F0
:104220000EC394405004AF0E80027F40C3E50E9F42
:0E423000F50E907FB4E020E2030241A380F47B
:10423E00907FB4E04401F00243B3124D670243B3E2
:10424E00124D890243B3124D810243B3124D5902EE
:10425E0043B3124D9940030243B3907FE8E0247FAD
:10426E0060241460312402705BA200E433FF25E069
:10427E00FFA202E4334F907F00F0E4A3F0907FB5ED
:10428E007402F00243B3E4907F00F0A3F0907FB588
:10429E007402F00243B3907FECE0F45480FFC454F8
:1042AE000FFFE054072F25E024B4F582E4347FF5A8
:1042BE0083E05401907F00F0E4A3F0907FB5740288
:1042CE00F00243B3907FB4E04401F00243B3124DC9
:1042DE009B40030243B3907FE8E024FE601D24025E
:1042EE0060030243B3907FEAE0B40105C2000243CB
:1042FE00B3907FB4E04401F00243B3907FEAE070E4
:10430E003B907FECE0F45480FFC4540FFFE0540761
:10431E002F25E024B4F582E4347FF583E4F0907F1A
:10432E00ECE05480FF131313541FFFE054072F903B
:03433E007FD7F036
:03434100E4F53967
:10434400E04420F08069907FB4E04401F080601282
:104354004D9D505B907FE8E024FE60182402704F6E
:10436400907FEAE0B40104D2008044907FB4E0443A
:1043740001F0803B907FEAE07020907FECE0F45401
:1043840080FFC4540FFFE054072F25E024B4F582C6
:10439400E4347FF5837401F08015907FB4E0440128
:1043A400F0800C124D9F5007907FB4E04401F090D0
:0643B4007FB4E04402F0BA
:0143BA0022E0
:03003300024D91EA
:044D910053D8EF32D2
:104C4700907FDEE04402F0907FDFE04404F0907F45
:104C5700ADE04404F0907FACE04402F0751301909E
:084C67007F9C74FFF0D20022D3
:014AFF002294
:024AFD00D322C2
:024D9500D32227
:024D9700D32225
:084D8100907FEAE0F514D32253
:0E4D5900907F00E514F0907FB57401F0D32236
:084D8900907FEAE0F511D3224E
:0E4D6700907F00E511F0907FB57401F0D3222B
:024D9900D32223
:024D9B00D32221
:024D9D00D3221F
:024D9F00D3221D
:104C6F00C0E0C083C082C085C084C086758600D274
:104C7F00015391EF907FAB7401F0D086D084D08533
:074C8F00D082D083D0E03297
:104CBD00C0E0C083C082C085C084C08675860053A5
:104CCD0091EF907FAB7404F0D086D084D085D082E4
:054CDD00D083D0E0329D
:104CE200C0E0C083C082C085C084C0867586005380
:104CF20091EF907FAB7402F0D086D084D085D082C1
:054D0200D083D0E03277
:104A5200C0E0C083C082C085C084C086758600C0A5
:0C4A6200D075D000C000C001C002C0032D
:104A6E00AA08A9097B018B158A16891790001D12B9
:104A7E004B71F512907FB7F0907FC97440F053914F
:074A8E00EF907FAB7410F004
:104A9500D003D002D001D000D0D0D086D084D0852C
:074AA500D082D083D0E03283
:014DA10032DF
:104C9600C0E0C083C082C085C084C086758600D24D
:104CA600035391EF907FAB7408F0D086D084D08503
:074CB600D082D083D0E03270
:014DA20032DE
:014DA30032DD
:104C1C00C0E0C083C082C085C084C0867586009009
:104C2C007FB7E512F05391EF907FA97402F0D08614
:0B4C3C00D084D085D082D083D0E0323D
:10462800C0E0C083C082C085C084C086758600C0D3
:0C463800D075D000C000C005C006C0074F
:0D464400907FB6E030E11A907FD77409F046
:03465100752100D0
:10465400E030E706E04420F08007907FD7E0444054
:10466400F0E4FFFE907FC7E0FDC3EF9D7480F86E19
:1046740098502074402FF582E4347EF583E0F4FDF5
:1046840074802FF582E4347EF583EDF00FBF0001D2
:104694000E80D1907FB7EFF0907FC7E4F05391EF95
:0646A400907FAA7402F0F1
:1046AA00D007D006D005D000D0D0D086D084D0850F
:0746BA00D082D083D0E03272
:014DA40032DC
:1049BE00C0E0C083C082C085C084C086758600C03A
:0C49CE00D075D000C000C005C006C007B6
:0D49DA00907FB6E030E11A907FD77409F0AD
:0349E70075210037
:1049EA00E030E706E04420F08007907FD7E04440BB
:1049FA00F0E4FFFE907FC9E0FDC3EF9D7480F86E7E
:104A0A0098502074C02FF582E4347DF583E0F4FDDC
:104A1A0074802FF582E4347EF583EDF00FBF000138
:104A2A000E80D1907FC9E4F05391EF907FAA74046D
:014A3A00F08B
:104A3B00D007D006D005D000D0D0D086D084D0857A
:074A4B00D082D083D0E032DD
:014DA50032DB
:1046C100C0E0C083C082C085C084C086758600C03A
:0C46D100D075D000C000C005C006C007B6
:0D46DD00907FBAE030E11A907FD7740BF0A7
:0346EA0075210037
:1046ED00E030E706E04420F08007907FD7E04440BB
:1046FD00F0E4FFFE907FCBE0FDC3EF9D7480F86E7C
:10470D0098502074402FF582E4347DF583E0F4FD5C
:10471D0074802FF582E4347DF583EDF00FBF000139
:10472D000E80D1907FBBEFF0907FCBE4F05391EFF3
:06473D00907FAA7408F051
:10474300D007D006D005D000D0D0D086D084D08575
:07475300D082D083D0E032D8
:014DA60032DA
:10475A00C0E0C083C082C085C084C086758600C0A0
:0C476A00D075D000C000C005C006C0071C
:0D477600907FBCE030E11A907FD7740CF00A
:034783007521009D
:10478600E030E706E04420F08007907FD7E0444021
:10479600F0E4FFFE907FCDE0FDC3EF9D7480F86EE0
:1047A60098502074C02FF582E4347CF583E0F4FD44
:1047B60074002FF582E4347DF583EDF00FBF000120
:1047C6000E80D1907FBDEFF0907FCDE4F05391EF56
:0647D600907FAA7410F0B0
:1047DC00D007D006D005D000D0D0D086D084D085DC
:0747EC00D082D083D0E0323F
:014DA70032D9
:1047F300C0E0C083C082C085C084C086758600C007
:0C480300D075D000C000C005C006C00782
:0D480F00907FBEE030E11A907FD7740DF06D
:03481C0075210003
:10481F00E030E706E04420F08007907FD7E0444087
:10482F00F0E4FFFE907FCFE0FDC3EF9D7480F86E44
:10483F0098502074402FF582E4347CF583E0F4FD2A
:10484F0074802FF582E4347CF583EDF00FBF000107
:10485F000E80D1907FBFEFF0907FCFE4F05391EFB8
:06486F00907FAA7420F006
:10487500D007D006D005D000D0D0D086D084D08542
:07488500D082D083D0E032A5
:014DA80032D8
:10488C00C0E0C083C082C085C084C086758600C06D
:0C489C00D075D000C000C005C006C007E9
:0D48A800907FC0E030E11A907FD7740EF0D1
:0348B5007521006A
:1048B800E030E706E04420F08007907FD7E04440EE
:1048C800F0E4FFFE907FD1E0FDC3EF9D7480F86EA9
:1048D80098502074C02FF582E4347BF583E0F4FD12
:1048E80074002FF582E4347CF583EDF00FBF0001EE
:1048F8000E80D1907FC1EFF0907FD1E4F05391EF1B
:06490800907FAA7440F04C
:10490E00D007D006D005D000D0D0D086D084D085A8
:07491E00D082D083D0E0320B
:014DA90032D7
:10492500C0E0C083C082C085C084C086758600C0D3
:0C493500D075D000C000C005C006C0074F
:0D494100907FC2E030E11A907FD7740FF034
:03494E00752100D0
:10495100E030E706E04420F08007907FD7E0444054
:10496100F0E4FFFE907FD3E0FDC3EF9D7480F86E0D
:1049710098502074402FF582E4347BF583E0F4FDF8
:1049810074802FF582E4347BF583EDF00FBF0001D5
:104991000E80D1907FC3EFF0907FD3E4F05391EF7D
:0649A100907FAA7480F073
:1049A700D007D006D005D000D0D0D086D084D0850F
:0749B700D082D083D0E03272
:10458300120110010000004025093412000101024C
:10459300000109022900010100A019090400000219
:1045A3000300000009211001000122340007050265
:1045B300034000640705810340006406A0FF09016E
:1045C300A1010902A10006A1FF0903090415802521
:1045D3007F350045FF750895028102090509061517
:1045E30080257F350045FF750895029102C0C00400
:1045F3000309041A03550053004200200043006FCF
:10460300006D0070006C00650074006500160345C2
:10461300005A002D00550053004200200048004975
:0546230000440000004E
:104D2800907FD6E030E712E04401F07F147E001255
:0A4D38004D42907FD6E054FEF022B9
:104D0700907FD6E04480F043870100000000002236
:074AAC00907FD6E04408F002
:034AB300E4F532F5
:044AB600E054FBF0DD
:034ABA00E4F532EE
:104ABD00E04408F0300404E04402F07FDC7E05128F
:104ACD004D42907F92E030E3077FDC7E05124D4230
:104ADD00907FAB74FFF0907FA9F0907FAAF0539177
:084AED00EF907FD6E054F7F0D2
:034AF500E4F532B3
:054AF800E04404F0227F
:024BF000A90713
:104BF200AE0FAF108F828E83A3E064037017AD01F6
:104C020019ED7001228F828E83E07C002FFDEC3E35
:094C1200FEAF0580DF7E007F008B
:014C1B002276
:024BAF00AD0750
:104BB100E4FCAE0CAF0D8F828E83A3E06402702AF9
:104BC100AB040CEBB50501228F828E83A3A3E0FA1F
:104BD100A3E08A3DF53E623DE53D623EE53E623D34
:0E4BE1002FFBE53D3EFEAF0380CC7E007F0043
:014BEF0022A3
:104D42008E338F34E5341534AE33700215334E6032
:074D520005124D1780EE224F
:104D17007400F58690FDA57C05A3E582458370F9AF
:014D27002269
:03004300024B006D
:104B0000024C6F00024CE200024CBD00024C9600C9
:104B1000024A5200024DA100024DA200024DA30024
:104B2000024C1C0002462800024DA4000249BE00AF
:104B3000024DA5000246C100024DA60002475A00E0
:104B4000024DA7000247F300024DA80002488C0066
:084B5000024DA90002492500F5
:03000000024D7539
:0C4D7500787FE4F6D8FD75813E0243BB58
:104B5800BB010689828A83E0225002E722BBFE025B
:094B6800E32289828A83E493228E
:104B7100BB010CE58229F582E5833AF583E02250F9
:104B810006E92582F8E622BBFE06E92582F8E22243
:0D4B9100E58229F582E5833AF583E493225D
:104B9E00EB9FF5F0EA9E42F0E99D42F0E89C45F06D
:014BAE0022E4
:00000001FF
