:100A0600907FECE0F45480FFC4540FFFE054072FAE
:100A160025E024B4F582E4347FF58322907FB4E0A8
:100A26004401F022907F00F0E4A3F0907FB57402B9
:020A3600F022AC
:10080600C203C200C202C201120728751804751974
:10081600D1751A04751BE3751C05751DD8D2E890B1
:100826007FAFE04401F0907FAEE04419F0D2AFD242
:1008360004120867538EF8300105120046C20130D3
:10084600031A12003E5015C203120AB42000079084
:100856007FD6E020E7F3120B12120BF1120377801A
:01086600D6BB
:100046001201E940030201E1907FE9E07003020139
:100056000F14700302015624FE70030201AA24FB4A
:1000660070030201091470030201031470030200F5
:10007600F71470030200FD240560030201DE120678
:100086001E40030201E1907FEBE024FE601614603F
:100096003624027056E518907FD4F0E519907FD586
:1000A600F00201E1907FEAE0FF1209588E5E8F5F51
:1000B600EF4E600DEE907FD4F0EF907FD5F0020109
:1000C600E1120A220201E1907FEAE0FF12000E8EA1
:1000D6005E8F5FEF4E600E8F828E83E0FD7C001296
:1000E60006A50201E1120A220201E1120A22020118
:1000F600E1120BCA0201E1120BFA0201E11200033E
:100106000201E1120BBC0201E11208FE40030201EA
:10011600E1907FE8E0247F601A1460222402702AAE
:10012600A200E433FF25E0FFA202E4334F120A2ABD
:100136000201E1E4907F00F0120A2F0201E1120AA7
:1001460006E05401120A2A0201E1120A220201E122
:10015600120C0240030201E1907FE8E024FE6016E3
:1001660024027077907FEAE0B40105C2000201E143
:10017600120A220201E1907FEAE07023120A06E4E5
:10018600F0907FECE05480FF131313541FFFE054EC
:10019600072F907FD7F0E4F560E04420F0803C1212
:1001A6000A228037120C045032907FE8E024FE6069
:1001B6001424027026907FEAE0B40104D200801B6A
:1001C600120A228016907FEAE07008120A0674016D
:1001D600F08008120A228003120A22907FB4E044BB
:0301E60002F02202
:0308FB00080204EC
:10079D00E493740193FA740293F9EA907FD4F0E92B
:1007AD00907FD5F02275F080A4FF7A7E7980C37496
:1007BD00809FF9747E95F022E55E25E02449F8E4EA
:1007CD00F608F622907F98E04410F02275F040A4D0
:1007DD002400F582E43410222561F8E6907F00F0C4
:1007ED0075620122744F255EF8E6225391EF907FDA
:0907FD00AB225391EF907FA92279
:10072800907FDEE0440EF0907FACE0440EF0740061
:10073800440124FF92001209D0907F9EE04410F0FB
:10074800907F92E054FDF0E4F558F547F55EE55EDC
:100758001207B2FECFE9CFE55E9008FB93FD120BBE
:10076800AB7452255EF8E4F67455255EF87601E51B
:100778005E1207C7744F255EF8E4F6055EE55EC3B2
:10078800940340CA755B7DE4F55CF55D754803F537
:0507980059120B58226C
:10037700120AD5EFF47002EEF4700302040D1207AF
:10038700D1EFF44E700675480302040DE54824FDCD
:10039700502B706FEF644B4E7004F548801AEF6472
:1003A7004C4E6006EF64434E70057548018009EFB7
:1003B700644D4E7003754802E4F55A8049744F2521
:1003C70048F8E654FEF6AE5A055AE5481207D9F53D
:1003D70083E5822EF582E43583F583EFF0E54890D7
:1003E70008FB93655A701F744F2548F8E64401F6D9
:1003F700E548B402097E107F807D04120B9875488A
:10040700038003754803300727C2070559E559B428
:10041700140AE4F559907F98E054EFF0E55860101E
:10042700054AE54A70020549054EE54E7002054D3D
:10043700E4F55E745B255EF8E6FF70051207C5807C
:1004470021EF75F004A4FFE55E25E02449F8E6FCFA
:1004570008E6C39FEC95F040091207F14402F61233
:1004670007C5055EE55EB403CAE4F55E7452255E12
:10047700F8E6704C1207F130E01BE55E1207B2FE9A
:10048700CFE9CFE55E1207D9AD82FCE55E9008FBA8
:1004970093FB120A381207F16026E4F6E55860204C
:1004A7007452255EF87601E55E9008FB93FFE55EE2
:1004B70025E024B7F582E4347FF583EFF01207C512
:0A04C700055EE55EC3940340A32226
:05003E001207D1D322DE
:090BF100907FD6E04480F0D3228D
:1001E9001207D1907FE8E0546064206002D3229026
:1001F9007FEDE0600302036E907FECE0C39403405F
:100209000302036E907FECE0F561E07003D3800197
:10021900C39204907FECE0B40203D38001C392053A
:10022900907FEFE0600302036E907FEEE0F563E4F8
:10023900F562907FE9E024FE603414606F24FA705F
:10024900030202CD14602F14606A240A60030203BA
:100259006EE5619008FB93F562E5611207B2FCCD8A
:10026900E9CD7E7F7F00AB62120A3802035A745BC4
:100279001207E502035A907FEBE07009745B256170
:10028900F8E4F6801F907FEBE0C394035009745B98
:100299002561F87603800D907FEBE0FF745B2561A3
:1002A900F8C6EFC6E5611207C702035A745512076B
:1002B900E502035A907FEAE0FF74552561F8C6EF1D
:1002C900C602035A30050302036E30040575640142
:1002D9008003756409E5636564600302036EE49055
:1002E9007FC5F0907FB4E020E3F9907FC5E06563B6
:1002F90070737FFF120A9130040C7F4C120A917FB0
:100309004C120A91802D907EC0E0644B6025907E4E
:10031900C0E0B44D0E7563057E7E7FC17D04120B6E
:10032900988010907EC0E06443703A7F43120A912E
:10033900756302E4F564E564C39563501474C025DC
:1003490064F582E4347EF583E0FF120A9105648046
:10035900E5E562600ED395634003856362907FB5DE
:0E036900E562F0C322907FB4E04401F0C322AD
:10061E00907FEDE07009907FECE0C394034002D32D
:10062E0022907FECE07003D38001C39204907FECA4
:10063E00E0B40203D38001C39205907FEBE0642106
:10064E00701E30050890052712079E801130040891
:10065E009004F512079D800690050E12079DC32289
:10066E00907FEBE064226002D32230050D7E057F81
:10067E00A67C007D321206A5801B30040D7E057F00
:10068E00377C007D3B1206A5800B7E057F727C00B9
:07069E007D341206A5C32202
:08000300907FEAE0F558D322DA
:0E0BBC00907F00E558F0907FB57401F0D322D1
:080BFA00907FEAE0F547D322E9
:0E0BCA00907F00E547F0907FB57401F0D322D4
:0208FE00D32203
:020C0200D322FB
:020C0400D322F9
:1006A5008E618F628C638D64907FEFE0FE907FEEAC
:1006B500E0FDEEF565EDF566D3E5649566E56395D4
:1006C500654006856563856664E5644563604ED36C
:1006D500E5649440E56394004008756500756640DF
:1006E50080068563658564667E7F7F00AB66AD6247
:1006F500AC61120A38907FB5E566F0C3E56495668E
:10070500F564E5639565F563E5662562F562E5657E
:100715003561F561907FB4E030E2AE80F7E4907F1B
:03072500B5F0220A
:100BAB008F828E83CFEDCF1DEF6005E4F0A380F431
:010BBB002217
:100A38008E678F688C698D6ACFEBCF1BEF6020853E
:100A48006A82856983E0856882856783F00568E541
:100A58006870020567056AE56A70DD056980D92254
:100B98008F828E83CFEDCF1DEF6007E0647FF0A3D7
:030BA80080F222B6
:100B6E00C0E0C083C082D2011207F87401F0D082B7
:050B7E00D083D0E0323D
:10099A00C0E0C083C082C0D075D010C201755800B3
:1009AA00E4FF74522FF87600EF25E02449F8760028
:1009BA000876000FBF03EB1207F87410F0D0D0D0FE
:0609CA0082D083D0E03270
:100B8300C0E0C083C082D2031207F87408F0D08299
:050B9300D083D0E03228
:100B2C00C0E0C083C0827552001207FF7402F0D07F
:060B3C0082D083D0E032FC
:100B4200C0E0C083C0827553001207FF7404F0D066
:060B520082D083D0E032E6
:100AF400C0E0C083C082907D81E4F0A3F0A3F0F550
:0E0B0400541207FF7408F0D082D083D0E03284
:020C060080FE6E
:1004D10012010001000000404705FFFF80010102F9
:1004E100000109025400030100A0190904000001E0
:1004F10003010103092110010001223B00070581CD
:100501000340000A0904010001030000040921104D
:100511000100012234000705820340000A09040298
:100521000001030102050921100100012232000727
:1005310005830340000A05010906A101050719E029
:1005410029E715002501750195088102810119002E
:1005510029E7150025E775089506810005081901A9
:100561002905150025017501950591029503910154
:10057100C006A0FF0901A1010902A10006A1FF090E
:100581000309041580257F350045FF750895028113
:1005910002090509061580257F350045FF75089577
:1005A100099102C0C005010902A1010901A10005CB
:1005B1000919012905150025017501950581029586
:1005C10003810105010930093109381581257F753C
:1005D1000895038106C0C004030904240341006E89
:1005E10000630068006F007200200043006800692A
:1005F1000070007300200049006E0063002E0008A7
:100601000355005A004B0006034B0042000A034306
:0D06110000540052004C0006034D00530041
:1009D000907F94E0440CF0907F9DE054F3F0438EC0
:1009E0001053890F438920758BFF758DD9D2DFD2C3
:1009F0008E75C050E4F523F522F546C206F525F5BF
:060A000024F521D2AE2214
:100AD500E52170057EFF7FFF22C2AEAF2505257497
:0F0AE500362FF8E6FF152153250FD2AE7E0022E3
:100A9100E546641060FA300615C2AEAE2205227436
:100AA100262EF8C6EFC6054653220FD2AE228FC1BD
:030AB100D2062248
:03003B000208B800
:1008B800C0E0C0D075D00830C017C2C0E5216410B0
:1008C800600FAF24052474362FF8A6C105215324E0
:1008D8000F30C11AC2C1E5467004C2068010AF23AA
:1008E800052374262FF8E6F5C1154653230FD0D0FB
:0308F800D0E0321B
:100B5800538EF75389F0438901758CF8758A30D222
:060B68008CC207D2A92295
:03000B00020BD80D
:0D0BD800C28C758CF8758A30D28CD2073231
:03004300020900AF
:10090000020B6E00020C0600020C0600020B8300B4
:1009100002099A00020C0600020C0600020C0600F6
:10092000020B2C00020C0600020B4200020C060017
:10093000020AF400020C0600020C0600020C06007B
:10094000020C0600020C0600020C0600020C060057
:08095000020C0600020C060077
:100B1200907FD6E030E712E04401F07F147E0012AD
:0A0B22000A68907FD6E054FEF0222E
:100AB400907FD6E04480F0438701000000000022CC
:07086700907FD6E04408F089
:03086E00E4F55E50
:04087100E054FBF064
:03087500E4F55E49
:10087800E04408F0300404E04402F07FDC7E051216
:100888000A68907F92E030E3077FDC7E05120A68F1
:10089800907FAB74FFF0907FA9F0907FAAF05391FE
:0808A800EF907FD6E054F7F059
:0308B000E4F55E0E
:0508B300E04404F02206
:02000E00A90740
:10001000AE1CAF1D8F828E83A3E064037017AD0109
:1000200019ED7001228F828E83E07C002FFDEC3E63
:09003000FEAF0580DF7E007F00B9
:0100390022A4
:10095800E4FEAC1AAD1B8D828C83A3E06402702D7B
:10096800AB060EEBB50705AF05AE04228D828C836E
:10097800A3A3E0F561A3E0F5626261E5616262E567
:100988006262612DFBE5613CFCAD0380C97E007F9E
:01099800005E
:01099900223B
:100A68008E5F8F60907F92E030E30BE56025E0F5C4
:100A780060E55F33F55FE5601560AE5F7002155F96
:090A88004E6005120AC480EE2242
:100AC4007400F58690FDA57C05A3E582458370F945
:010AD40022FF
:03000000020BE50B
:0C0BE500787FE4F6D8FD75816A020806EE
:00000001FF
