:04000000020AA1321D
:01000B0032C2
:0100130032BA
:01001B0032B2
:0100230032AA
:03002B000201AD22
:030033000208FEC2
:01003B003292
:030043000204BDF7
:030B0000020046AA
:100046001202B580FE7A007B07EB24FF5021EA2AD4
:10005600FA907F9BE0FC20E4F8907F9BE0FC20E593
:1000660003430201907F9BE0FC30E4F81B80DA90AA
:100076007F9BE0FB20E4F8907F9BE0FB30E50343A9
:100086000280907F9BE0FB30E4F8758A56758CFF02
:10009600907F9EE0FB4420F0D28CBA780302019A4E
:1000A600BAF90302019ABAFA0302019ABAFB0302E9
:1000B600019ABAFC0302019ABAFD0302019ABAFE3A
:1000C6000302019ABAFF0302019AC204747F5AFB23
:1000D600BB6000404FEB2498404AEB24A0FB25E090
:1000E6002B9000EB7302011202011E0201030201B2
:1000F6000E02011602012202011A020126430280A3
:10010600D2027B00D20480207B01801C7B028018F7
:100116007B0480147B0880107B20800C7B40800849
:100126007B8080047B00D204EB6016EA30E709EBA3
:100136004521F521D2008009EBF4FB5521F521D2AA
:1001460000300450EA30E72A53027FEA9002F59322
:10015600FA7B027C02BC08005014EC2421F8E670FD
:1001660008EB2421F8A60280050C8C0380E7D20058
:100176008022EA9002F593FA7B07EB24FE5013EBFC
:100186002421F88604ECB50206EB2421F876001B40
:1001960080E8D200308DFD907F9EE0FA54DFF0C2F9
:1001A6008CC28D02004B22C0E0C082C083C0D075D5
:1001B600D018D310AF01C3C0D010CF03020236C28D
:1001C60005100302801D7A088A1B1AEB24FD5011C4
:1001D600EA2421F8861BBB39EFEA2421F876008051
:1001E600E7D20520010D152AE52A60028005D20511
:1001F60085292A30000ED205C20085292A1002025E
:100206008002D2033005292007267A088A1B1AEBBA
:1002160024FF5014EA2480F582E4347EF583EA2430
:1002260021F8861BEBF080E4D207907FB77408F0C4
:10023600D0D092AFD0D0D083D082D0E032C200C22C
:100246000175297DC202C2032285292A75C8007557
:10025600CDC175CBC175CC8075CA80D2ADC2CFD2A7
:10026600CA22907F9EE0FA54EFF0907F9EE0FA5407
:10027600DFF0907F98E0FA54DFF07A07EA2421F85D
:1002860076008A031AEB24FF40F222C28CC28DC28A
:10029600A9758901227A02EA24FF50031A80F89090
:1002A6007FD6E054FBF0E0FA4408F0758200227A2B
:1002B600007B408A048B051ABAFF011BC3E49C74B9
:1002C600808DF063F08095F040E9120375120909FC
:1002D60012026812024F120291907FD6E04402F099
:1002E600E054F7F0E0FA4404F012004B80FE2235A9
:1002F6001E1F20212223242526272D2E310062149D
:100306001A0815171C180C12132F3000595A5B04C3
:100316001607090A0B0D0E0F333432005C5D5E00C2
:100326001D1B061905111036373800635F60612CF6
:100336002A2B5828294C000000560052514F503A9B
:100346003B3C3D3E3F404142432F3054555775009C
:10035600003900000000000000000000000000005E
:0F03660000000000000000000000000000000088
:060AFA00752BE8752C7F4E
:10037500120243C206C207227403252BF582E43517
:100385002CF583E0FABA01028019BA02028033BA69
:100395000302804DBA2103020459BA220302047FE5
:1003A5000204B6907FB47402F07A507B098B0A7B05
:1003B50000907FD4EAF07A507B097B00907FD5EAE4
:1003C500F022907FB47402F07A627B098B0A7B007D
:1003D500907FD4EAF07A627B097B00907FD5EAF0C2
:1003E500227402252BF582E4352CF583E0FABA0454
:1003F50000505A907FB47402F07402252BF582E404
:10040500352CF583E0FA75F002A42499F582740A77
:1004150035F0F583E493FA740193FB8B0A7B009026
:100425007FD4EAF07402252BF582E4352CF583E0C0
:10043500FA75F002A42499F582740A35F0F583E47F
:1004450093FA7401937B00907FD5EAF022907FB4F4
:100455007403F022907FB47402F07A627B097412FF
:100465002AFAE43BFB8B0A7B00907FD4EAF07A62A0
:100475007B09907FD574122AF0227404252BF5820E
:10048500E4352CF583E0FA6002801F907FB4740296
:10049500F07A847B098B0A7B00907FD4EAF07A841A
:1004A5007B097B00907FD5EAF022907FB47403F03E
:1004B50022907FB47403F022C0E0C0F0C082C083F4
:1004C500C0D075D0085391EF907FABE0FA20E003E0
:1004D500020898907FAB7401F07401252BF582E436
:1004E500352CF583E0FA24F45003020892EA2A2A0F
:1004F5009004F97302051D02055302062E020671CA
:1005050002089202089202075602089202075C024C
:1005150007850207B0020825852B82852C83E0FA22
:10052500BA80028008BA81028003BA8218907F00DF
:10053500E4F0907F01F0907FB57402F0907FB47481
:1005450002F0020898907FB47403F0020898852B96
:1005550082852C83E0FA6013BA01028017BA020281
:10056500801BBAA1030205E1020625907FB474023F
:10057500F0020898907FB47402F00208987404257C
:100585002BF582E4352CF583E0FA600ABA80028007
:1005950016BA813F8023907FD7E4F07420F0907FD6
:1005A500B47402F0020898907FD77410F07430F09C
:1005B500907FB47402F0020898907FB6E0FA54FE7A
:1005C500F0907FD77411F07431F0907FB47402F01D
:1005D500020898907FB47403F00208987404252BE0
:1005E500F582E4352CF583E0FA6002802A7A078AE1
:1005F5000B1AEB24FF500F8A8275837FEA2421F8BA
:10060500860BEBF080E9C200907FB57408F0907F0F
:10061500B47402F0020898907FB47403F00208984D
:10062500907FB47403F0020898852B82852C83E0B3
:10063500FABAA12F7404252BF582E4352CF583E055
:10064500FA60028015907F00E529F0907FB574016E
:10065500F0907FB47402F0020898907FB47403F0B0
:10066500020898907FB47403F0020898852B828560
:100675002C83E0FA6013BA01028017BA0202801BCC
:10068500BAA10302071E02074D907FB47402F0025F
:100695000898907FB47402F00208987404252BF52D
:1006A50082E4352CF583E0FA600ABA80028025BA27
:1006B500815E803C907FB4E0FA4401F0907FD7E4FE
:1006C500F07420F0907FC5E4F0907FB4E0FA440226
:1006D500F0020898907FB4E0FA4401F0907FD77457
:1006E50010F07430F0907FB4E0FA4402F0020898FC
:1006F500907FB67401F0907FD77411F07431F0904B
:100705007FB6E0FA4402F0907FB47402F0020898D4
:10071500907FB47403F00208987404252BF582E4E5
:10072500352CF583E0FA60028015907F007401F0A6
:10073500907FB57401F0907FB47402F00208989030
:100745007FB47403F0020898907FB47403F0020834
:100755009812037D020898852B82852C83E0FABACE
:100765008015907F007401F0907FB57401F0907F43
:10077500B47402F0020898907FB47403F0020898EC
:10078500852B82852C83E0FA6005BA2115800990B6
:100795007FB47402F0020898D206907FC5E4F00297
:1007A5000898907FB47403F0020898852B82852CF5
:1007B50083E0FABA21028017BA815C907F00E4F0E9
:1007C500907FB57401F0907FB47402F002089874BC
:1007D50004252BF582E4352CF583E0FA6002802EA2
:1007E5007403252BF582E4352CF583E0FA24FF50BC
:1007F50012C2017403252BF582E4352CF583E0F54F
:10080500298002D201907FB47402F0020898907F8B
:10081500B47403F0020898907FB47403F00208984A
:10082500852B82852C83E0FABA01028005BA215511
:10083500804B7402252BF582E4352CF583E0FA60B4
:100845000280327404252BF582E4352CF583E0FA19
:1008550060028019907FD77411F07431F0907FB6E3
:10086500E0FA4402F0907FB47402F08026907FB4E1
:100875007403F0801E907FB47403F08016907FB4EB
:100885007402F0800E907FB47403F08006907FB4FC
:100895007403F0907FA9E0FA30E006907FA9740117
:1008A500F0907FAAE0FA30E016907FAA7401F0106C
:1008B50006028006907FB47402F0907FC5E4F09044
:1008C5007FABE0FA30E406907FAB7410F0907FAB1D
:1008D500E0FA30E309907FAB7408F0438701907F1D
:1008E500A9E0FA30E108907FA97402F0C207D0D0E0
:1008F500D083D082D0F0D0E032C0D075D01053D89C
:10090500EFD0D032C2AF907FAFE4F0907FAB74FFF1
:10091500F0907FAE7419F0907FA97403F0907FACCE
:100925007403F0907FAA7401F0907FAD7401F0908C
:100935007FB6E4F0907FDE7403F0907FDF7401F002
:10094500D2E853D8EF43D820D2AF221201100100CC
:10095500000040CD0604C000010102000109022289
:1009650000010100803209040000010301010309AF
:100975002100012101223F000705810308000A0526
:10098500010906A101050719E029E71500250175EB
:100995000195088102950175088101950575010587
:1009A50008190129059102950175039101950675AF
:1009B50008150025650507190029658100C0040390
:1009C50000002203410043004D0045002000550072
:1009D500530042002000570069006400670065006D
:1009E50074007300260341006D0069006700610013
:1009F50020006B006500790062006F0061007200E5
:100A0500640020004800490044008A0341006D004D
:100A150069006700610020004B00650079006200F5
:100A25006F00610072006400200048004900440026
:100A350020004400720069007600650072002C00F9
:100A450020004600690072006D00770061007200A9
:100A55006500200043006F00700079007200690096
:100A6500670068007400200028006300290020004A
:100A750032003000300033002000410072006E006B
:100A850069006D0020004C0061006500750067007D
:0C0A950065007200C309C709E9090F0AD7
:060AD000E478FFF6D8FDFA
:100AAE007900E94400601B7A00900B03780075A072
:100ABE0000E493F2A308B8000205A0D9F4DAF275A7
:020ACE00A0FF87
:100AD6007800E84400600A790075A000E4F309D8BC
:100AE600FC7800E84400600C7900900000E4F0A374
:040AF600D8FCD9FA55
:0D0AA10075812C12029BE582600302004665
:00000001FF
