:1003D300451A01FEFDFBF7EF471A06010204081058
:0603E3002040411A00FF5A
:100214001203FB7A1A7B087D017F221203B77F2227
:100224001202D67A1A7B037D017F211203B77F2144
:100234001202D67F017E001203727A1A7B007D01BE
:100244007F211203B77F211202D67A1A7B097D011E
:100254007F221203B77F221202D67A1A7B047D0111
:100264007F211203B77F211202D67F017E00120381
:10027400727A1A7B007D017F211203B77F2112025B
:03028400D6809091
:100372008E0E8F0F907F92E030E30BE50F25E0F5B4
:100382000FE50E33F50EE50F150FAE0E7002150ECA
:090392004E60051203EA80EE2220
:0803FB00E4F50DD2E9D2AF22B6
:1002D600907FA5E020E6F9C2E9907FA5E04480F092
:1002E600EF25E0907FA6F0907FA5E030E0F9907FC3
:1002F600A5E04440F0907FA5E020E6F9907FA5E0D8
:0603060030E1D6D2E9222D
:10034000A907907FA5E020E6F9E50D7023907FA531
:10035000E04480F0E925E0907FA6F08D08AF03A986
:10036000077509018A0A890BE4F50C750D01D32282
:02037000C322A6
:10030C00A907907FA5E020E6F9E50D7025907FA563
:10031C00E04480F0E925E04401907FA6F08D08AF21
:10032C0003A9077509018A0A890BE4F50C750D03FD
:04033C00D322C322E3
:03004B0002008030
:10008000C0E0C083C082C085C084C086758600C0C1
:10009000D075D000C000C001C002C003C006C007B8
:1000A000907FA5E030E206750D0602016A907FA5FB
:1000B000E020E10CE50D64026006750D0702016A9F
:1000C000E50D24FE605F14603624FE700302015BC0
:1000D00024FC70030201672408600302016AAB0973
:1000E000AA0AA90BAF0C050C8F8275830012028738
:1000F000907FA6F0E50C65087070750D05806B901B
:100100007FA6E0AB09AA0AA90BAE0C8E827583000C
:100110001202B4750D02E5086401704E907FA5E0EF
:100120004420F08045E50824FEB50C07907FA5E04B
:100130004420F0E50814B50C0A907FA5E04440F097
:10014000750D00907FA6E0AB09AA0AA90BAE0C8E34
:10015000827583001202B4050C800F907FA5E044E5
:1001600040F0750D008003750D005391DFD007D06E
:1001700006D003D002D001D000D0D0D086D084D019
:0801800085D082D083D0E0326B
:10039B0012030CE50D24FA600E146006240770F3AB
:0C03AB00D322E4F50DD322E4F50DD3229B
:1003B700120340E50D24FA600E146006240770F35B
:0C03C700D322E4F50DD322E4F50DD3227F
:1003EA007400F58690FDA57C05A3E582458370F926
:0103FA0022E0
:0300000002018872
:0C018800787FE4F6D8FD75810F0201CFEE
:10028700BB010CE58229F582E5833AF583E022502C
:1002970006E92582F8E622BBFE06E92582F8E22276
:0D02A700E58229F582E5833AF583E4932290
:1002B400F8BB010DE58229F582E5833AF583E8F080
:1002C400225006E92582C8F622BBFE05E92582C82C
:0202D400F22214
:10019400020214E493A3F8E493A34003F68001F26B
:1001A40008DFF48029E493A3F85407240CC8C3336C
:1001B400C4540F4420C8834004F456800146F6DF3B
:1001C400E4800B01020408102040809003D3E47EF5
:1001D400019360BCA3FF543F30E509541FFEE49330
:1001E400A360010ECF54C025E060A840B8E493A3F7
:1001F400FAE493A3F8E493A3C8C582C8CAC583CA22
:10020400F0A3C8C582C8CAC583CADFE9DEE780BED9
:0103E9000013
:00000001FF
