:0400000002147E3236
:03000B0002004BA5
:0100130032BA
:01001B0032B2
:0100230032AA
:03002B000200E2EE
:030033000212B105
:01003B003292
:03004300020E7238
:0314DD00020046C4
:100046001209DE80FEC0E0C082C083C002C003C0C9
:1000560004C005C000C0D075D000D310AF01C3C026
:10006600D0C28C052153213F907F9874404521F0E2
:10007600758A4F758CFBD28C907F98E0FA543FF0CE
:10008600907F9BE0FA530280907F98E0FB4440F01B
:10009600E5212437F88603EAB503028028A602780C
:1000A60078860374012B540FFC78778605ECB5052A
:1000B600028012EB2BFB2479F8A621740128F8A6FE
:1000C600027878A604D0D092AFD0D0D000D005D098
:1000D60004D003D002D083D082D0E032C0E0C0F09A
:1000E600C082C083C0D075D01820CF0302016AC277
:1000F600CF20020B1531E531600280038530319047
:100106001C18E0FA901C19E0FBEAB51B0280558525
:1001160030312001FDEA75F008A4241AFA741C3562
:10012600F0FB7C00BC0800501EEC2480FDE4347E0D
:10013600FE8C1F7800EF2AF582E83BF583E0FF8D01
:10014600828E83F00C80DD901C18E004FA901C1857
:10015600EAF0531A07901C18EAF0D201907FB774A0
:1001660008F0809BD0D0D083D082D0F0D0E032751A
:10017600B80275F801907F9C74FFF0907F9D74B073
:10018600F0907F94740CF0907F9E747FF022C28C66
:10019600C28DC2A98589355335F043350185358928
:1001A600438E08758A4F758CFBD2A9C28DD28C22DC
:1001B60085303175C80075CDC175CBC175CC8075DC
:1001C600CA80D2ADC2CFD2CA228582228583238538
:1001D600F0247A017E00BE0800502DEE2410F58230
:1001E600E4341CF583E0FFEE2522F8E43523F9AD6F
:1001F60024888289838DF0121456F8EFB5000280A8
:10020600047A0080030E80CEBA0104758200229023
:100216001C19E0FD74012D5407F525901C18E0FE0D
:10022600E525B50604758200227E00BE0800504E04
:10023600901C19E0FF75F008A4241AFF741C35F011
:10024600F88E017D00E92FFFED38F8EE2410FDE46D
:10025600341CF9EE2522FAE43523FBAC248A828B82
:10026600838CF0121456FA8D828983F08F828883EC
:10027600EAF08A82C00612140FD0060E80AD901CDA
:1002860019E525F075820122789BB60500400475B4
:10029600820522789BB60400400475820422789B6E
:1002A600868222AA827B00BAE9004005EA2413501E
:1002B600047582002274075AFC7D001CBCFF011DD8
:1002C6008CF005F07C017D008006EC2CFCED33FD06
:1002D600D5F0F7BAEC1FE535700474018001E4FA35
:1002E600B40100E433FA6007789BEC66FA80047880
:1002F6009B86028016E53560028007789BEC46FDFA
:100306008007ECF4FC789B56FD8D02789BE6B502DF
:10031600028006789BA6027B018B8222AA8274D079
:100326004AF582C00212140FD00274E04526F58207
:10033600C00212140FD00274F04527F582C00212D3
:10034600140FD002901C00E0FBEA24FA50030204CA
:100356006EEA2A2A90035E730203700203C5020442
:100366001602046202046602046AE52724F8404A7B
:10037600E527252725279003807302039802039D0E
:100386000203A20203A70203AC0203B10203B602F0
:1003960003BB7A010204707A010204707A00020437
:1003A600707A000204707A000204707A0002047007
:1003B6007A000204707A000204707A00020470E582
:1003C6002724F84047E527252725279003D57302DC
:1003D60003ED0203F20203F70203FC020401020426
:1003E6000602040A02040E7A010204707A0102046B
:1003F600707A020204707A000204707A00020470B5
:100406007A0380667A0080627A00805E7A00805A7B
:10041600E52724F84042E52725272527900426735B
:1004260002043E02044202044602044A02044E0248
:10043600045202045602045A7A01802E7A01802A56
:100446007A0280267A0080227A00801E7A03801A39
:100456007A0080167A0080127A00800E7A01800A6D
:100466007A0180067A0180027A01EA24FA4037EAA4
:100476002A2A90047C7302048E02049202049A02D1
:1004860004A00204A40204AC8B02801AAA26789A5D
:10049600A6028012789A8602800C7A008008AB2623
:1004A600789AA6037A008A8222907F96E0FA441010
:1004B600F07A007BFF7CFF8B058C061BBBFF011CC3
:1004C600ED4E60307877860578788606EDB50602BB
:1004D60080E5ED2DFD2479F88605088606BD1F0505
:1004E600BE00027A017877068605740F5D7877A6D6
:1004F600E0BA01C3787886037877A603907F96E002
:10050600FB54EFF08A8222AA82BAEE028005BAEF85
:100516000A80047A0180067A0280027A008A8222A0
:100526007A02C3EA64809488500FEA2400F582E4D4
:10053600341CF583E4F00A80E922AA827B007C025F
:10054600C3EC64809488501FEC2400FDE4341CFE48
:100556008D828E83E0FF6002800A8D828E83EAF0B0
:100566007B0180030C80D98B8222AA827B007C02CD
:100576007D02C3ED648094885046ED2400F582E444
:10058600341CF583E0FEB5023274012CFEC3EE6422
:10059600809488501DEE142400FFE4341CF8EE24E9
:1005A60000F582E4341CF583E0F98F828883F00E2F
:1005B60080DB901C07E4F07B0180050D8D0480B282
:1005C6008B8222AA827B00BAE0004009EA24184006
:1005D600047B018005BAE9027B018B82227877864B
:1005E6000278788603EAB5030280F2EA2AFA2479C9
:1005F600F88602088628789986047D007535807508
:1006060036018C828D83C002121439AC82AD83D040
:1006160002EC242AFCED340AFD8A067F00EE2CF556
:1006260082EF3DF583E493FCC002C00412028EAD56
:1006360082D004D0028528358C82C002C005120201
:10064600A9AE82D005D002BE0118C002C0051205AF
:1006560026D005D002ED245AF582E4341CF58374C5
:10066600FFF0C00212028EAD82D002789986067F14
:10067600007535807536018E828F83C002C00512E3
:100686001439AE82AF83D005D002EE242AFEEF34B1
:100696000AFFED75F040A42EFEEF35F0FF8A2A75AD
:1006A6002B00E52A2EF582E52B3FF583E493FCBC6F
:1006B600ED00B3E433FE600AC374EF9CB3E433FE8B
:1006C60070047E0080027E01EE60047E0180027E60
:1006D60000BE010280030207F58C03BCED00B3E403
:1006E60033FF600AC374EF9CB3E433FF70047F00EA
:1006F60080027F01EF60047F0180027F00BF0164FA
:10070600789986077E007535807536018F828E83CF
:10071600C002C003C004C005121439AE82AF83D034
:1007260005D004D003D002EE242AFEEF340AFF8C53
:1007360082C002C003C005C006C00712050DE582CF
:10074600D007D006D005D003D00275F040A42EFE07
:10075600EF35F0FFE52A2EF582E52B3FF583E4938E
:10076600FC0206E18B82C002C004C0051205C9AEB8
:1007760082D005D004D002BE00028003020863E5E1
:10078600286002802D8C82C002C004C0051205407C
:10079600AE82D005D004D002BE01028003020863F7
:1007A600ED245AF582E4341CF583EAF07529020239
:1007B60008637529038C82C002C004C00512057047
:1007C600AE82D005D004D002BE01028003020863C7
:1007D600ED245AFEE4341CFF8E828F83E0FBEAB5DB
:1007E60003078E828F8374FFF0752904020863BCA9
:1007F600EC030208638C82C002C004C0051205C95E
:10080600AB82D005D004D002BB0052E5286002803E
:10081600178C82C004C005120540AB82D005D004F7
:10082600BB013A75290580357529068C82C002C040
:1008360004C005120570AB82D005D004D002BB01FE
:100846001CED245AFBE4341CFE8B828E83E0FFEA07
:10085600B507078B828E8374FFF07529077A008CA3
:1008660082C002C004C0051205C9AB82D005D004FF
:10087600D002BB012BBCE9027CE0740F5C04F5F0EE
:100886007401800225E0D5F0FBFBE52860028008B4
:10089600EB42027529008008EBF4FB520275290130
:1008A6008A268529278D82120322AA82901C00EAB5
:1008B600F0901C0075F0011201CF7877068602745D
:1008C6000F5A7877A6E00205E322752CFE752DFFF8
:1008D600752E01752F007A007B00BB0600500FEBCA
:1008E6002400F582E4341CF583E4F00B80ECAB2C99
:1008F600AC2DAD2EAE2F152C74FFB52C0C152DB5C9
:100906002D07152EB52E02152FEB4C4D4E70DF7BA5
:1009160002FCBC0100501FEC900A2993FDBDE000CB
:1009260050118B060BEE2400F582E4341CF583EDA2
:10093600F07A010C80DCEA6028901C0075F0011248
:1009460001CF7A00BA0800500FEA2400F582E43499
:100956001CF583E4F00A80EC901C0075F00102019E
:10096600CF22C20275307D227521007A00BA0800B6
:10097600500FEA2400F582E4341CF583E4F00A8083
:10098600EC7A00BA40005009EA2437F876800A80EB
:10099600F27878760078777600789A7600901C1947
:1009A600E4F0901C18F07A00BA06005010EA245AB7
:1009B600F582E4341CF58374FFF00A80EB227A0298
:1009C600EA24FF50031A80F8907FD6E054FBF0E04B
:1009D600FA4408F0758200227A007B408A048B056F
:1009E6001ABAFF011BEC4D70F3C2AF120175121259
:1009F600BC1201941201B61213E6D2AF120D2A12DE
:100A0600096E907FD6E04402F0E054F7F0E0FA4435
:100A160004F01204AFE5827899F61208D01205E3C5
:100A260080FE22001F141A16041D1B06202115081D
:100A36000709190522231C170A0B11001E292B2C46
:100A4600E1E2EAE92425180C0E0D100031352A28BA
:100A5600ECE5EB3526271213330F36002D2E302FFB
:100A660034383700EDEDEDED4AEDEDEDEDEDED4D04
:100A76004C4FED50EDEDEDEDED2A5100EDEDEDEDC8
:100A8600EDEDEDEDEDEDEDEDEDEDED00EDED4CED1E
:100A960000ED00EDEDEDED52EDEDED00EDEDEDEDE2
:100AA600EDEDED00EDEDEDEDEDEDEDEDEDEDEDED5D
:100AB600EDEDEDEDEDEDEDEDEDED4E00EDEDEDEDEC
:100AC600ED00EDEDEDEDEDEDEDEDED00EDEDEDED2A
:100AD60000EDEDEDEDEDED4BEDEDED00EDEDEDEDBC
:100AE600EDEDED00EFEFEFEFEFEFEFEFEFEFEFEF05
:100AF600EFEFEFEFEFEFEFEFEFEFEFEFEFEFEFEF00
:100B0600EFEFEFEFEFEFEFEFEFEFEFEFEFEFEFEFEF
:100B1600EFEFEFEFEFEFEFEFEFEFEFEFEFEFEFEFDF
:100B2600EFEFEF00000000000000000000000000F2
:100B360000000000000000000000000000000000AF
:100B4600000000000000000000000000000000009F
:100B5600000000000000000000000000000000008F
:100B6600000000000000000000000000000000007F
:100B7600000000000000000000000000000000006F
:100B8600000000000000000000000000000000005F
:100B9600000000000000000000000000000000004F
:100BA600000000001F141A16041D1B06202115083C
:100BB6000709190522231C170A0B11001E292B2CC5
:100BC600E1E2EAE92425180C0E0D100031352A2839
:100BD600ECE5EB3526271213330F36002D2E302F7A
:100BE60034383700EDEDEDED4AEDEDEDEDEDED4D83
:100BF6004C4FED50EDEDEDEDED2A5100EDEDEDED47
:100C0600EDEDEDEDEDEDEDEDEDEDED00EDED4CED9C
:100C160000ED00EDEDEDED52EDEDED00EDEDEDED60
:100C2600EDEDED00EDEDEDEDEDEDEDEDEDEDEDEDDB
:100C3600EDEDEDEDEDEDEDEDEDED4E00EDEDEDED6A
:100C4600ED00EDEDEDEDEDEDEDEDED00EDEDEDEDA8
:100C560000EDEDEDEDEDED4BEDEDED00EDEDEDED3A
:100C6600EDEDED00EFEFEFEFEFEFEFEFEFEFEFEF83
:100C7600EFEFEFEFEFEFEFEFEFEFEFEFEFEFEFEF7E
:100C8600EFEFEFEFEFEFEFEFEFEFEFEFEFEFEFEF6E
:100C9600EFEFEFEFEFEFEFEFEFEFEFEFEFEFEFEF5E
:100CA600EFEFEF0000000000000000000000000071
:100CB600000000000000000000000000000000002E
:100CC600000000000000000000000000000000001E
:100CD600000000000000000000000000000000000E
:100CE60000000000000000000000000000000000FE
:100CF60000000000000000000000000000000000EE
:100D060000000000000000000000000000000000DD
:100D160000000000000000000000000000000000CD
:040D260000000000C9
:0614D7007532E875337F59
:100D2A00120968C200C2012274032532F582E43531
:100D3A0033F583E0FABA01028019BA02028033BAA3
:100D4A000302804DBA2103020E0EBA2203020E34A8
:100D5A00020E6B907FB47402F07AFF7B128B0A7BCF
:100D6A0000907FD4EAF07AFF7B127B00907FD5EA6D
:100D7A00F022907FB47402F07A117B138B0A7B0005
:100D8A00907FD4EAF07A117B137B00907FD5EAF04A
:100D9A002274022532F582E43533F583E0FABA0487
:100DAA0000505A907FB47402F074022532F582E43E
:100DBA003533F583E0FA75F002A424DEF582741364
:100DCA0035F0F583E493FA740193FB8B0A7B009068
:100DDA007FD4EAF074022532F582E43533F583E0F4
:100DEA00FA75F002A424DEF582741335F0F583E473
:100DFA0093FA7401937B00907FD5EAF022907FB436
:100E0A007403F022907FB47402F07A117B13741287
:100E1A002AFAE43BFB8B0A7B00907FD4EAF07A1132
:100E2A007B13907FD574122AF02274042532F5823E
:100E3A00E43533F583E0FA6002801F907FB47402D0
:100E4A00F07A337B138B0A7B00907FD4EAF07A33F3
:100E5A007B137B00907FD5EAF022907FB47403F075
:100E6A0022907FB47403F022C0E0C0F0C082C08335
:100E7A00C0D075D0085391EF907FABE0FA20E00321
:100E8A0002124B907FAB7401F074012532F582E4B3
:100E9A003533F583E0FA24F45003021245EA2A2A8C
:100EAA00900EAE73020ED2020F08020FE102102456
:100EBA0002124502124502110902124502110F02DD
:100ECA0011380211630211D8853282853383E0FA20
:100EDA00BA80028008BA81028003BA8218907F0021
:100EEA00E4F0907F01F0907FB57402F0907FB474C3
:100EFA0002F002124B907FB47403F002124B853257
:100F0A0082853383E0FA6013BA01028017BA0202BB
:100F1A00801BBAA103020F96020FD8907FB4740205
:100F2A00F002124B907FB47402F002124B74042543
:100F3A0032F582E43533F583E0FA600ABA8002803A
:100F4A0016BA813F8023907FD7E4F07420F0907F17
:100F5A00B47402F002124B907FD77410F07430F020
:100F6A00907FB47402F002124B907FB6E0FA54FEFE
:100F7A00F0907FD77411F07431F0907FB47402F05E
:100F8A0002124B907FB47403F002124B74042532A0
:100F9A00F582E43533F583E0FA600280287A078A1D
:100FAA000B1AEB24FF500F8A8275837FEA2400F81C
:100FBA00860BEBF080E9907FB57408F0907FB474EB
:100FCA0002F002124B907FB47403F002124B907F2E
:100FDA00B47403F002124B853282853383E0FABA85
:100FEA00A12F74042532F582E43533F583E0FA60E3
:100FFA00028015907F00E530F0907FB57401F09083
:10100A007FB47402F002124B907FB47403F00212A0
:10101A004B907FB47403F002124B8532828533837E
:10102A00E0FA6013BA01028017BA0202801BBAA161
:10103A00030210D1021100907FB47402F002124B25
:10104A00907FB47402F002124B74042532F582E4E4
:10105A003533F583E0FA600ABA80028025BA815EE8
:10106A00803C907FB4E0FA4401F0907FD7E4F074BA
:10107A0020F0907FC5E4F0907FB4E0FA4402F002D9
:10108A00124B907FB4E0FA4401F0907FD77410F0CD
:10109A007430F0907FB4E0FA4402F002124B907F71
:1010AA00B67401F0907FD77411F07431F0907FB666
:1010BA00E0FA4402F0907FB47402F002124B907F7F
:1010CA00B47403F002124B74042532F582E435330A
:1010DA00F583E0FA60028015907F007401F0907F3A
:1010EA00B57401F0907FB47402F002124B907FB491
:1010FA007403F002124B907FB47403F002124B1285
:10110A000D3202124B853282853383E0FABA80159A
:10111A00907F007401F0907FB57401F0907FB474F1
:10112A0002F002124B907FB47403F002124B853224
:10113A0082853383E0FA6005BA21158009907FB46D
:10114A007402F002124BD200907FC5E4F002124BF7
:10115A00907FB47403F002124B853282853383E0A8
:10116A00FABA21028017BA815C907F00E4F0907F7E
:10117A00B57401F0907FB47402F002124B74042526
:10118A0032F582E43533F583E0FA6002802E740387
:10119A002532F582E43533F583E0FA24FF5012C292
:1011AA000274032532F582E43533F583E0F53080A5
:1011BA0002D202907FB47402F002124B907FB47490
:1011CA0003F002124B907FB47403F002124B853283
:1011DA0082853383E0FABA01028005BA2155804B31
:1011EA0074022532F582E43533F583E0FA60028031
:1011FA003274042532F582E43533F583E0FA60026D
:10120A008019907FD77411F07431F0907FB6E0FAAC
:10121A004402F0907FB47402F08026907FB4740385
:10122A00F0801E907FB47403F08016907FB474022D
:10123A00F0800E907FB47403F08006907FB474033C
:10124A00F0907FA9E0FA30E006907FA97401F0904F
:10125A007FAAE0FA30E016907FAA7401F01000022B
:10126A008006907FB47402F0907FC5E4F0907FAB63
:10127A00E0FA30E406907FAB7410F0907FABE0FAAE
:10128A0030E309907FAB7408F0438701907FA9E0AF
:10129A00FA30E108907FA97402F0C201D0D0D0835D
:1012AA00D082D0F0D0E032C0D075D01053D8EFD071
:1012BA00D032907FAFE4F0907FAB74FFF0907FAEB6
:1012CA007419F0907FA97403F0907FAC7403F090C6
:1012DA007FAA7401F0907FAD7401F0907FB6E4F0BC
:1012EA00907FDE7403F0907FDF7401F0D2E853D868
:1012FA00EF43D820221201100100000040CD06045D
:10130A00C00001010200010902220001010080322D
:10131A00090400000103010103092100012101223E
:10132A003F000705810308000A05010906A1010516
:10133A000719E029E715002501750195088102952D
:10134A00017508810195057501050819012905919D
:10135A000295017503910195067508150025650525
:10136A0007190029658100C0040300001803610001
:10137A00750074006F006D006500740061002E0036
:10138A0072006F000E036B00620064002D0069009A
:10139A00660042036E0065007200640020002D00A2
:1013AA0020006200750069006C0074003A00320087
:1013BA003000300036002E00300036002E00320099
:1013CA0034002000300030003A00350035003A0081
:1013DA0034003900721376139C138E13907F94E0B5
:1013EA00FA440CF0907F9DE0FA54F3F0438E1053C8
:1013FA00890F438920758BFF758DF6D2DFD28E75E2
:10140A00C050D2C122C0348581340581AA82E4A2A7
:10141A00AF33FBA83408A603C2AF10C10280FB8A0F
:0F142A00C1A83408E624FF92AF853481D0342264
:0614AD00E478FFF6D8FD13
:10148B007900E94400601B7A009014E0786075A045
:10149B001CE493F2A308B8000205A0D9F4DAF275A4
:0214AB00A0FFA0
:10143900E5828535F0A4C582C0F08536F0A4D0F0E8
:0D14490025F0C5838535F0A42583F58322A9
:1014B3007800E84400600A790075A000E4F309D8D5
:1014C300FC7860E84400600C7901901C00E4F0A310
:0414D300D8FCD9FA6E
:0D147E0075819B1209C4E5826003020046DF
:10145600E5F0601014601514601414601314146021
:101466000374FF22C000A882E6D00022E022932265
:08147600C000A882E2D00022B0
:00000001FF
